{
  "_format": "hh-sol-artifact-1",
  "contractName": "PeerToPeerLending",
  "sourceName": "contracts/Lock.sol",
  "abi": [
    {
      "anonymous": false,
      "inputs": [
        {
          "indexed": false,
          "internalType": "uint256",
          "name": "loanId",
          "type": "uint256"
        }
      ],
      "name": "CollateralClaimed",
      "type": "event"
    },
    {
      "anonymous": false,
      "inputs": [
        {
          "indexed": false,
          "internalType": "uint256",
          "name": "loanId",
          "type": "uint256"
        }
      ],
      "name": "CollateralRefunded",
      "type": "event"
    },
    {
      "anonymous": false,
      "inputs": [
        {
          "indexed": false,
          "internalType": "uint256",
          "name": "loanId",
          "type": "uint256"
        }
      ],
      "name": "LoanCancelled",
      "type": "event"
    },
    {
      "anonymous": false,
      "inputs": [
        {
          "indexed": false,
          "internalType": "uint256",
          "name": "loanId",
          "type": "uint256"
        }
      ],
      "name": "LoanCheckpointFailed",
      "type": "event"
    },
    {
      "anonymous": false,
      "inputs": [
        {
          "indexed": false,
          "internalType": "uint256",
          "name": "loanId",
          "type": "uint256"
        },
        {
          "indexed": false,
          "internalType": "address",
          "name": "borrower",
          "type": "address"
        },
        {
          "indexed": false,
          "internalType": "uint256",
          "name": "collateralAmount",
          "type": "uint256"
        }
      ],
      "name": "LoanCreated",
      "type": "event"
    },
    {
      "anonymous": false,
      "inputs": [
        {
          "indexed": false,
          "internalType": "uint256",
          "name": "loanId",
          "type": "uint256"
        },
        {
          "indexed": false,
          "internalType": "address",
          "name": "lender",
          "type": "address"
        }
      ],
      "name": "LoanFunded",
      "type": "event"
    },
    {
      "anonymous": false,
      "inputs": [
        {
          "indexed": false,
          "internalType": "uint256",
          "name": "loanId",
          "type": "uint256"
        }
      ],
      "name": "LoanRepaid",
      "type": "event"
    },
    {
      "inputs": [
        {
          "internalType": "uint256",
          "name": "_loanId",
          "type": "uint256"
        }
      ],
      "name": "cancelLoan",
      "outputs": [],
      "stateMutability": "nonpayable",
      "type": "function"
    },
    {
      "inputs": [
        {
          "internalType": "uint256",
          "name": "_loanId",
          "type": "uint256"
        }
      ],
      "name": "checkMidwayCheckpoint",
      "outputs": [],
      "stateMutability": "nonpayable",
      "type": "function"
    },
    {
      "inputs": [],
      "name": "contractBalance",
      "outputs": [
        {
          "internalType": "uint256",
          "name": "",
          "type": "uint256"
        }
      ],
      "stateMutability": "view",
      "type": "function"
    },
    {
      "inputs": [
        {
          "internalType": "uint256",
          "name": "_loanAmount",
          "type": "uint256"
        },
        {
          "internalType": "uint256",
          "name": "_interestRate",
          "type": "uint256"
        },
        {
          "internalType": "uint256",
          "name": "_durationInMonths",
          "type": "uint256"
        }
      ],
      "name": "createLoan",
      "outputs": [],
      "stateMutability": "payable",
      "type": "function"
    },
    {
      "inputs": [
        {
          "internalType": "uint256",
          "name": "_loanId",
          "type": "uint256"
        }
      ],
      "name": "fundLoan",
      "outputs": [],
      "stateMutability": "payable",
      "type": "function"
    },
    {
      "inputs": [],
      "name": "loanIdCounter",
      "outputs": [
        {
          "internalType": "uint256",
          "name": "",
          "type": "uint256"
        }
      ],
      "stateMutability": "view",
      "type": "function"
    },
    {
      "inputs": [
        {
          "internalType": "uint256",
          "name": "",
          "type": "uint256"
        }
      ],
      "name": "loans",
      "outputs": [
        {
          "internalType": "address payable",
          "name": "borrower",
          "type": "address"
        },
        {
          "internalType": "address payable",
          "name": "lender",
          "type": "address"
        },
        {
          "internalType": "uint256",
          "name": "collateralAmount",
          "type": "uint256"
        },
        {
          "internalType": "uint256",
          "name": "loanAmount",
          "type": "uint256"
        },
        {
          "internalType": "uint256",
          "name": "interestRate",
          "type": "uint256"
        },
        {
          "internalType": "uint256",
          "name": "duration",
          "type": "uint256"
        },
        {
          "internalType": "uint256",
          "name": "startTime",
          "type": "uint256"
        },
        {
          "internalType": "enum PeerToPeerLending.LoanStatus",
          "name": "status",
          "type": "uint8"
        }
      ],
      "stateMutability": "view",
      "type": "function"
    },
    {
      "inputs": [
        {
          "internalType": "uint256",
          "name": "_loanId",
          "type": "uint256"
        }
      ],
      "name": "repayLoan",
      "outputs": [],
      "stateMutability": "payable",
      "type": "function"
    },
    {
      "stateMutability": "payable",
      "type": "receive"
    }
  ],
  "bytecode": "0x608060405234801561001057600080fd5b50611729806100206000396000f3fe60806040526004361061007f5760003560e01c80639d939d161161004e5780639d939d1614610117578063ab7b1c8914610142578063bdbfa3de1461015e578063e1ec3c681461018757610086565b80630466ef811461008b578063846b909a146100b45780638b7afe2e146100d0578063904b513b146100fb57610086565b3661008657005b600080fd5b34801561009757600080fd5b506100b260048036038101906100ad9190610f0e565b6101cb565b005b6100ce60048036038101906100c99190610f0e565b610428565b005b3480156100dc57600080fd5b506100e561061e565b6040516100f29190610f4a565b60405180910390f35b61011560048036038101906101109190610f65565b610626565b005b34801561012357600080fd5b5061012c610856565b6040516101399190610f4a565b60405180910390f35b61015c60048036038101906101579190610f0e565b61085c565b005b34801561016a57600080fd5b5061018560048036038101906101809190610f0e565b610bfb565b005b34801561019357600080fd5b506101ae60048036038101906101a99190610f0e565b610e3e565b6040516101c2989796959493929190611070565b60405180910390f35b6000600160008381526020019081526020016000209050600160048111156101f6576101f5610ff9565b5b8160070160009054906101000a900460ff16600481111561021a57610219610ff9565b5b1461025a576040517f08c379a00000000000000000000000000000000000000000000000000000000081526004016102519061114b565b60405180910390fd5b6002816005015461026b91906111c9565b816006015461027a91906111fa565b4210156102bc576040517f08c379a00000000000000000000000000000000000000000000000000000000081526004016102b39061127a565b60405180910390fd5b60006064826004015483600301546102d4919061129a565b6102de91906111c9565b82600301546102ed91906111fa565b905060006002826102fe91906111c9565b905080836002015461031091906111fa565b471015610422578260010160009054906101000a900473ffffffffffffffffffffffffffffffffffffffff1673ffffffffffffffffffffffffffffffffffffffff166108fc84600201549081150290604051600060405180830381858888f19350505050158015610385573d6000803e3d6000fd5b5060038360070160006101000a81548160ff021916908360048111156103ae576103ad610ff9565b5b02179055507fedf16f5c197d053eaf3b80125e1f1053c95b8bd0b8ca3f8921c4dac3344a1fa9846040516103e29190610f4a565b60405180910390a17fd951b721f993d3959dc31ba5a751da7974aa23a2c46f52fc71c9ba9d1675b8e4846040516104199190610f4a565b60405180910390a15b50505050565b60006001600083815260200190815260200160002090506000600481111561045357610452610ff9565b5b8160070160009054906101000a900460ff16600481111561047757610476610ff9565b5b146104b7576040517f08c379a00000000000000000000000000000000000000000000000000000000081526004016104ae90611328565b60405180910390fd5b806003015434146104fd576040517f08c379a00000000000000000000000000000000000000000000000000000000081526004016104f490611394565b60405180910390fd5b338160010160006101000a81548173ffffffffffffffffffffffffffffffffffffffff021916908373ffffffffffffffffffffffffffffffffffffffff16021790555060018160070160006101000a81548160ff0219169083600481111561056857610567610ff9565b5b02179055504281600601819055508060000160009054906101000a900473ffffffffffffffffffffffffffffffffffffffff1673ffffffffffffffffffffffffffffffffffffffff166108fc349081150290604051600060405180830381858888f193505050501580156105e0573d6000803e3d6000fd5b507f15feab5d3eb17171632762cf769709a315dd15f487a556c0dfb8a259c8f186cc82336040516106129291906113d5565b60405180910390a15050565b600047905090565b60003411610669576040517f08c379a00000000000000000000000000000000000000000000000000000000081526004016106609061144a565b60405180910390fd5b60008081548092919061067b9061146a565b91905055506000805490506040518061010001604052803373ffffffffffffffffffffffffffffffffffffffff168152602001600073ffffffffffffffffffffffffffffffffffffffff16815260200134815260200185815260200184815260200162278d00846106ec919061129a565b8152602001600081526020016000600481111561070c5761070b610ff9565b5b8152506001600083815260200190815260200160002060008201518160000160006101000a81548173ffffffffffffffffffffffffffffffffffffffff021916908373ffffffffffffffffffffffffffffffffffffffff16021790555060208201518160010160006101000a81548173ffffffffffffffffffffffffffffffffffffffff021916908373ffffffffffffffffffffffffffffffffffffffff16021790555060408201518160020155606082015181600301556080820151816004015560a0820151816005015560c0820151816006015560e08201518160070160006101000a81548160ff0219169083600481111561080d5761080c610ff9565b5b02179055509050507f8910ba13a55695f056e224bbbc6b65d866b12a8c2fbdf387fb853a1cca298cd7813334604051610848939291906114b2565b60405180910390a150505050565b60005481565b806001600082815260200190815260200160002060000160009054906101000a900473ffffffffffffffffffffffffffffffffffffffff1673ffffffffffffffffffffffffffffffffffffffff163373ffffffffffffffffffffffffffffffffffffffff1614610901576040517f08c379a00000000000000000000000000000000000000000000000000000000081526004016108f890611535565b60405180910390fd5b60006001600084815260200190815260200160002090506001600481111561092c5761092b610ff9565b5b8160070160009054906101000a900460ff1660048111156109505761094f610ff9565b5b14610990576040517f08c379a00000000000000000000000000000000000000000000000000000000081526004016109879061114b565b60405180910390fd5b806005015481600601546109a491906111fa565b4211156109e6576040517f08c379a00000000000000000000000000000000000000000000000000000000081526004016109dd906115a1565b60405180910390fd5b60006064826004015483600301546109fe919061129a565b610a0891906111c9565b8260030154610a1791906111fa565b905080341015610a5c576040517f08c379a0000000000000000000000000000000000000000000000000000000008152600401610a539061160d565b60405180910390fd5b8160010160009054906101000a900473ffffffffffffffffffffffffffffffffffffffff1673ffffffffffffffffffffffffffffffffffffffff166108fc829081150290604051600060405180830381858888f19350505050158015610ac6573d6000803e3d6000fd5b508160000160009054906101000a900473ffffffffffffffffffffffffffffffffffffffff1673ffffffffffffffffffffffffffffffffffffffff166108fc83600201549081150290604051600060405180830381858888f19350505050158015610b35573d6000803e3d6000fd5b5080341115610b91573373ffffffffffffffffffffffffffffffffffffffff166108fc8234610b64919061162d565b9081150290604051600060405180830381858888f19350505050158015610b8f573d6000803e3d6000fd5b505b60028260070160006101000a81548160ff02191690836004811115610bb957610bb8610ff9565b5b02179055507f9a7851747cd7ffb3fe0a32caf3da48b31f27cebe131267051640f8b72fc4718684604051610bed9190610f4a565b60405180910390a150505050565b806001600082815260200190815260200160002060000160009054906101000a900473ffffffffffffffffffffffffffffffffffffffff1673ffffffffffffffffffffffffffffffffffffffff163373ffffffffffffffffffffffffffffffffffffffff1614610ca0576040517f08c379a0000000000000000000000000000000000000000000000000000000008152600401610c9790611535565b60405180910390fd5b600060016000848152602001908152602001600020905060006004811115610ccb57610cca610ff9565b5b8160070160009054906101000a900460ff166004811115610cef57610cee610ff9565b5b14610d2f576040517f08c379a0000000000000000000000000000000000000000000000000000000008152600401610d26906116d3565b60405180910390fd5b60048160070160006101000a81548160ff02191690836004811115610d5757610d56610ff9565b5b02179055508060000160009054906101000a900473ffffffffffffffffffffffffffffffffffffffff1673ffffffffffffffffffffffffffffffffffffffff166108fc82600201549081150290604051600060405180830381858888f19350505050158015610dca573d6000803e3d6000fd5b507fb71becc91961a6b43bcc5b3b630f3dce02c7fd444cf3738c4f188062b1caf5bc83604051610dfa9190610f4a565b60405180910390a17fb114199b00f0783c83d8d9876951c9e60116f59aa34bd618d966d07d90b909ad83604051610e319190610f4a565b60405180910390a1505050565b60016020528060005260406000206000915090508060000160009054906101000a900473ffffffffffffffffffffffffffffffffffffffff16908060010160009054906101000a900473ffffffffffffffffffffffffffffffffffffffff16908060020154908060030154908060040154908060050154908060060154908060070160009054906101000a900460ff16905088565b600080fd5b6000819050919050565b610eeb81610ed8565b8114610ef657600080fd5b50565b600081359050610f0881610ee2565b92915050565b600060208284031215610f2457610f23610ed3565b5b6000610f3284828501610ef9565b91505092915050565b610f4481610ed8565b82525050565b6000602082019050610f5f6000830184610f3b565b92915050565b600080600060608486031215610f7e57610f7d610ed3565b5b6000610f8c86828701610ef9565b9350506020610f9d86828701610ef9565b9250506040610fae86828701610ef9565b9150509250925092565b600073ffffffffffffffffffffffffffffffffffffffff82169050919050565b6000610fe382610fb8565b9050919050565b610ff381610fd8565b82525050565b7f4e487b7100000000000000000000000000000000000000000000000000000000600052602160045260246000fd5b6005811061103957611038610ff9565b5b50565b600081905061104a82611028565b919050565b600061105a8261103c565b9050919050565b61106a8161104f565b82525050565b600061010082019050611086600083018b610fea565b611093602083018a610fea565b6110a06040830189610f3b565b6110ad6060830188610f3b565b6110ba6080830187610f3b565b6110c760a0830186610f3b565b6110d460c0830185610f3b565b6110e160e0830184611061565b9998505050505050505050565b600082825260208201905092915050565b7f4c6f616e206973206e6f74206163746976650000000000000000000000000000600082015250565b60006111356012836110ee565b9150611140826110ff565b602082019050919050565b6000602082019050818103600083015261116481611128565b9050919050565b7f4e487b7100000000000000000000000000000000000000000000000000000000600052601260045260246000fd5b7f4e487b7100000000000000000000000000000000000000000000000000000000600052601160045260246000fd5b60006111d482610ed8565b91506111df83610ed8565b9250826111ef576111ee61116b565b5b828204905092915050565b600061120582610ed8565b915061121083610ed8565b92508282019050808211156112285761122761119a565b5b92915050565b7f436865636b706f696e74206e6f74207265616368656400000000000000000000600082015250565b60006112646016836110ee565b915061126f8261122e565b602082019050919050565b6000602082019050818103600083015261129381611257565b9050919050565b60006112a582610ed8565b91506112b083610ed8565b92508282026112be81610ed8565b915082820484148315176112d5576112d461119a565b5b5092915050565b7f4c6f616e20616c72656164792066756e646564206f7220636c6f736564000000600082015250565b6000611312601d836110ee565b915061131d826112dc565b602082019050919050565b6000602082019050818103600083015261134181611305565b9050919050565b7f496e636f7272656374206c6f616e20616d6f756e740000000000000000000000600082015250565b600061137e6015836110ee565b915061138982611348565b602082019050919050565b600060208201905081810360008301526113ad81611371565b9050919050565b60006113bf82610fb8565b9050919050565b6113cf816113b4565b82525050565b60006040820190506113ea6000830185610f3b565b6113f760208301846113c6565b9392505050565b7f436f6c6c61746572616c20726571756972656400000000000000000000000000600082015250565b60006114346013836110ee565b915061143f826113fe565b602082019050919050565b6000602082019050818103600083015261146381611427565b9050919050565b600061147582610ed8565b91507fffffffffffffffffffffffffffffffffffffffffffffffffffffffffffffffff82036114a7576114a661119a565b5b600182019050919050565b60006060820190506114c76000830186610f3b565b6114d460208301856113c6565b6114e16040830184610f3b565b949350505050565b7f4e6f742074686520626f72726f77657200000000000000000000000000000000600082015250565b600061151f6010836110ee565b915061152a826114e9565b602082019050919050565b6000602082019050818103600083015261154e81611512565b9050919050565b7f4c6f616e20657870697265640000000000000000000000000000000000000000600082015250565b600061158b600c836110ee565b915061159682611555565b602082019050919050565b600060208201905081810360008301526115ba8161157e565b9050919050565b7f496e73756666696369656e742072657061796d656e7400000000000000000000600082015250565b60006115f76016836110ee565b9150611602826115c1565b602082019050919050565b60006020820190508181036000830152611626816115ea565b9050919050565b600061163882610ed8565b915061164383610ed8565b925082820390508181111561165b5761165a61119a565b5b92915050565b7f4f6e6c792070656e64696e67206c6f616e732063616e2062652063616e63656c60008201527f6c65640000000000000000000000000000000000000000000000000000000000602082015250565b60006116bd6023836110ee565b91506116c882611661565b604082019050919050565b600060208201905081810360008301526116ec816116b0565b905091905056fea2646970667358221220fd346ff6a12df7b3cb5b9b4170eaf42567deb0bc3737f1e273624e936535239064736f6c63430008140033",
  "linkReferences": {},
  "deployedLinkReferences": {}
}